:100000000C943D020C945A020C945A020C945A021D
:100010000C945A020C945A020C945A020C945A02F0
:100020000C945A020C945A020C945A020C941E0E10
:100030000C945A020C945A020C945A020C945A02D0
:100040000C945A020C945A020C94CC0E0C94010F8E
:100050000C945A020C945A020C945A020C945A02B0
:100060000C945A020C945A0273656E736F722030AE
:100070007839343A20253034580A0073656E736F2E
:100080007220307839323A20253034580A007365AE
:100090006E736F7220307839303A20253034580A28
:1000A000000A70756C6C696E67206461746120660B
:1000B000726F6D2073656E736F72732E2E2E0A0031
:1000C0000A006E6F74206C6F6767696E67206175D8
:1000D000746F6D61746963616C6C790A006C6F6731
:1000E00067696E67206175746F6D61746963616CB7
:1000F0006C790A00253034646420253032643A2556
:100100003032643A253032642073696E636520733F
:100110007461727475700A000A002530325820002C
:100120000A00253032580A007072696E74207061BE
:1001300067653A20307800726573657474696E671C
:100140002063616368650A00253032580A007265D1
:1001500073657420706167653A203078002530320D
:10016000580A00726561642073656E736F72206156
:100170006464726573733A2030780025640A005312
:1001800065742074696D65206D756C7469706C6937
:1001900065723A20000A00253032582000707269DA
:1001A0006E742063616368650A00737461727469B8
:1001B0006E672061742030782530325825303258EF
:1001C0000A00636F756C646E27742066696E642024
:1001D000706C61636520746F207374617274210A9E
:1001E000007365656B696E672073706F7420696E4C
:1001F00020454550524F4D0A00636F6E6669677522
:1002000072696E672074656D706572617475726570
:100210002073656E736F727320617420307839308B
:100220002C20307839322C20307839342C2030781A
:1002300039360A00696E697469616C697A696E673A
:10024000206932630A00726573657474696E672091
:10025000454550524F4D0A000A41544D6567612093
:10026000737461727465640A7365742075702055C7
:100270004152540A000A70756C6C696E67206461A3
:1002800074612066726F6D2073656E736F72732E6A
:100290002E2E0A00626567696E6E696E67206F6E4A
:1002A000207061676520253032580A726573657465
:1002B00074696E6720706167650A736176696E673D
:1002C000207265736574207061676520746F2045C6
:1002D0004550524F4D0A00736176696E6720636125
:1002E00063686564207061676520746F20454550C0
:1002F000524F4D0A006C6F6767696E6720746F20FC
:10030000636163686520666F722070616765203085
:1003100078253032582C207374617274696E6720AE
:100320006174203078253032580A000A00253032B6
:1003300058200050616765203078253032583A0ADD
:1003400000202D207265616479210A00576169746B
:10035000696E6720756E74696C20454550524F4D2B
:10036000206973207265616479002E006E616E00F1
:10037000696E660000407A10F35A00A0724E1809A8
:100380000010A5D4E80000E87648170000E40B54FC
:10039000020000CA9A3B000000E1F50500008096CB
:1003A0009800000040420F000000A08601000000FD
:1003B000102700000000E8030000000064000000B7
:1003C00000000A00000000000100000000002C7680
:1003D000D888DC674F0823DFC1DFAE59E1B1B7969B
:1003E000E5E3E453C63AE651997696E8E6C28426F8
:1003F000EB898C9B62ED407C6FFCEFBC9C9F40F2D4
:10040000BAA56FA5F490055A2AF75C936B6CF9674F
:100410006DC11BFCE0E40D47FEF520E6B500D0ED14
:10042000902E0300943577050080841E080000207C
:100430004E0A000000C80C333333330F986E12831A
:100440001141EF8D2114893BE65516CFFEE6DB18EE
:10045000D1844B381BF77C1D901DA4BBE4242032B3
:1004600084725E228100C9F124ECA1E53D2763641A
:10047000696E6F70737578585B0011241FBECFEFE3
:10048000D8E0DEBFCDBF11E0A0E0B1E0E4E3F9E3E6
:1004900002C005900D92A83DB107D9F717E0A8ED6D
:1004A000B1E001C01D92AF36B107E1F70E94C30F62
:1004B0000C94981C0C9400000E947D0F80E008951D
:1004C0000E94460F90FDFCCF0895009731F02AE07E
:1004D00000002150E9F70197F8CF0895CF93DF93FB
:1004E000EC01209791F08AEF90E00E9465028AEF7C
:1004F00090E00E9465028AEF90E00E9465028AEF18
:1005000090E00E9465022197ECCFDF91CF91089592
:100510005C985A9898E05D9887FF02C05E9A01C087
:100520005E985D9A880F9150B1F708955C985A9A39
:1005300098E05D9887FF02C05E9A01C05E985D9A60
:10054000880F9150B1F70895CF93C82F82958F707F
:1005500080610E9488028C2F8F70CF910C9488024A
:10056000806B0C948802DF92EF92FF920F931F939F
:10057000CF93DF93F82EE42E481710F4F42EE82ED4
:10058000261718F4862F622F282F162F16951695EA
:10059000169530E02F5F3F4F83E0359527958A957C
:1005A000E1F7D22ED116C8F0812F0E94B0020F2D94
:1005B00080E8189FE0011124E01668F0802F0E9467
:1005C000A402FE01E00FF11DE759FD4F80810E945A
:1005D00096020F5FF1CF1F5FE5CFDF91CF911F91A3
:1005E0000F91FF90EF90DF900895FF920F931F936C
:1005F000CF93DF9309E612E0F12C8F2D0E94B00219
:10060000C0E0D0E0C038D10559F08C2F0E94A40280
:10061000F801EC0FFD1F80810E9496022196F2CF17
:10062000F39400581F4F88E0F812E7CFDF91CF9185
:100630001F910F91FF9008955B985B9A80E40E9450
:10064000880281EA0E94880280EC0E94880286EA81
:100650000E94880282EA0E9488028FE20E94880239
:1006600088EF0E94880280E00E94880287E20E9450
:10067000880281E80E94880280E10E9488028CEA58
:100680000E94880280E00E9488028FEA0C9488020F
:10069000962F977021E030E001C0220F9A95EAF77B
:1006A00066956695669590E8699FF0011124E80FBC
:1006B000F11DE759FD4F8081822308956F927F924B
:1006C0009F92AF92BF92CF92DF92EF92FF920F93E1
:1006D0001F93CF93DF9300D0CDB7DEB7182FC62E70
:1006E000481710F4142F482F2C1518F48C2DC22EF7
:1006F000282F802F8170B82EEE24E394F12C41171F
:1007000008F452C0DC2C612E712C2D1508F44AC05F
:100710009D2C969496949694ED2DE770AE2E023013
:1007200039F56D2D812F2A8349830E9448032A8140
:100730004981F301882371F080E8989EE00DF11D56
:100740001124E759FD4FD7010A2C01C0AA0F0A94C2
:10075000EAF722C080E8989EE00DF11D1124E759C8
:10076000FD4FD7010A2C01C0AA0F0A94EAF710C066
:10077000F30180E8989EE00DF11D1124E759FD4F2B
:10078000D7010A2C01C0AA0F0A94EAF7BB2021F076
:1007900080818A2B808304C0A0958081A823A083B8
:1007A000D394B3CF1F5FABCF0F900F90DF91CF915A
:1007B0001F910F91FF90EF90DF90CF90BF90AF907F
:1007C0009F907F906F9008952F923F924F925F92EB
:1007D0006F927F928F92AF92BF92CF92DF92EF9201
:1007E000FF920F931F93CF93DF93CDB7DEB7B22E57
:1007F00070E0AB014150510957FF03C0AB014A5FA4
:100800005F4F23E0559547952A95E1F7FF24F39430
:10081000F40E30E041E050E03A1509F454C0632F83
:100820006E0D462E469446944694512C67703A01BC
:1008300002C0660C771C6A95E2F710E0A32FAB0D9F
:10084000B0E01815F1F1612F6C0DFC01F69EE00D82
:10085000F11D1124E40DF51D608170E06621772102
:10086000F12FF00F3F2E369436943694F770DF2E2A
:10087000672B99F0BD01E0E83E9E600D711D1124CB
:1008800067597D4F1B01BA0101C0660FFA95EAF75F
:10089000F1017081762B708312C0FD0120E8329E39
:1008A000E00DF11D1124E759FD4FBA010D2C01C0D7
:1008B000660F0A94EAF760957081672360831F5F73
:1008C000C0CF3F5FA9CFDF91CF911F910F91FF90D4
:1008D000EF90DF90CF90BF90AF908F907F906F9010
:1008E0005F904F903F902F9008958F92AF92CF924C
:1008F000EF920F93CF93DF93EC01062F423060F01D
:10090000842F880F840F880F835075E0872EE6E0D0
:10091000AE2EC12CE82E08C065E0862E41110EC017
:1009200056E0A52EC12CE12C288145E069E382E246
:1009300091E00E94E40388818A5F0EC033E0A32E19
:10094000C12C46E0E42E288145E069E382E291E093
:100950000E94E40388818D5F8883DF91CF910F919E
:10096000EF90CF90AF908F900895FF920F931F93C9
:10097000CF93DF931F92CDB7DEB78983F62E8A011E
:10098000403187E2580760F0CA0160E177E20E94D7
:100990004F17462F6F2DCE0101960E94750404C09B
:1009A000483E83E0580780F0C80160E177E20E948A
:1009B0004F1768EE73E00E944F17462F6F2DCE0140
:1009C00001960E94750403C04436510580F0C801A9
:1009D00068EE73E00E944F1764E670E00E944F17C4
:1009E000462F6F2DCE0101960E94750403C04A3038
:1009F000510578F0C80164E670E00E944F176AE084
:100A000070E00E944F17462F6F2DCE0101960E9475
:100A10007504C8016AE070E00E944F17482F6F2DDF
:100A2000CE0101960E9475040F90DF91CF911F9126
:100A30000F91FF900895EF92FF920F931F93CF9322
:100A4000DF931F92CDB7DEB78983162F7A0157FF48
:100A500009C04EEF480F01E062E0610F262F84507D
:100A60000E945E03A701F7FE03C05195419551090D
:100A7000CA01F4E095958795FA95E1F7FA01EF70D0
:100A8000FF27E255FE4FF0800AE0602F0E943517E5
:100A9000E92E482F612FCE0101960E9475044E2D3C
:100AA000612FCE0101960E94750494E0910F498157
:100AB000E92FE695E695E69580E8E89FF001112498
:100AC000E40FF11DE759FD4F977021E030E001C0C0
:100AD000220F9A95EAF79081922B90834E5F49837B
:100AE0008F2D602F0E943517092F482F612FCE01BF
:100AF00001960E947504402F612FCE0101960E943D
:100B000075040F90DF91CF911F910F91FF90EF909F
:100B10000895229A2A9A2A9A299A2A9829982298F4
:100B20002A982A9A0895229A2A9A2A98299A2A9AD9
:100B3000299822982A982A9A08950E948905229A2B
:100B40002A9A2A9A89E090E0299A29980197009791
:100B5000D9F70E9489050C949305229A2A9A882332
:100B600011F02A9A01C02A98299A299822982A983D
:100B70002A9A089522982A982A9A299A83B129981C
:100B80002A9A82FB882780F90895229A2A9A2A981D
:100B9000299A29982A9A22982A980895229A2A9A74
:100BA0002A9A299A29982A9A22982A9808951F936E
:100BB000CF93DF93182FC8E0D0E0812F80780E9478
:100BC000AD05110F21972097C1F7DF91CF911F91AC
:100BD00008951F93CF93DF93C8E0D0E010E00E9408
:100BE000BA05110F182B21972097C9F7812FDF9194
:100BF000CF911F9108951F93CF93DF931F92CDB78D
:100C0000DEB7182FF89499830E949D050E948905EC
:100C100080EA0E94D7050E94BA059981892F0E9417
:100C2000D7050E94BA05812F0E94D7050E94BA05F8
:100C30000E94890581EA0E94D7050E94BA050E9498
:100C4000E905182F0E94BA050E94CE050E9493055F
:100C50007894812F0F90DF91CF911F910895CF93BA
:100C6000DF93CAE6D3E00E94890580EA0E94D70597
:100C7000DF93CF930E94E2180E94BA050F900F9065
:100C80008111F1CFDF91CF910C949D05BF92CF924E
:100C9000DF92EF92FF920F931F93CF93DF93C82EB3
:100CA000B62E172FF8940E949D050E94890580EAB0
:100CB0000E94D7050E94BA058C2D0E94D7050E947C
:100CC000BA0580E00E94D7050E94BA05CB2DD12F2E
:100CD00089910E94D7050E94BA05BC12F9CF0E94E3
:100CE000930578942CE433E03F932F930E94E2180D
:100CF0000E942F0621E433E03F932F930E94E218D5
:100D0000D12CDC2CCC240F900F900F900F90CB2D7A
:100D1000D12FBEEBEB2EB1E0FB2E8C2F8B19860171
:100D2000082BC8010E94FB059991891751F01F9368
:100D30000F93FF92EF920E94CE180F900F900F909A
:100D40000F90BC12EACFDF91CF911F910F91FF90CE
:100D5000EF90DF90CF90BF9008951F93CF93DF93D4
:100D6000EC01292F33278091E30190E02817390700
:100D700041F4DD27C759D94F2981888130E0382BCC
:100D80000DC0CE010E94FB05182FCE0101960E94D6
:100D9000FB05212F30E0322F2227282BC901DF91BC
:100DA000CF911F91089569E676E08091E3010C945C
:100DB0004606EAE6F6E09FE08FEFDF0111979C938D
:100DC0008083329627E0EA36F207B9F70895BF929A
:100DD000CF92DF92EF92FF920F931F93CF93DF9307
:100DE000C82ED12C1F928F9383E393E09F938F9310
:100DF0000E94E218DC2CCC240F900F900F900F90E3
:100E0000B12C0DE213E0CBE2D3E00E949D05EB2C68
:100E1000F12CC7018C299D290E94FB05F701E75998
:100E2000F94F80831F928F931F930F930E94E218B4
:100E3000B3948B2D8F700F900F900F900F9029F718
:100E4000DF93CF930E94E2180F900F90B110DDCF87
:100E5000DF91CF911F910F91FF90EF90DF90CF9096
:100E6000BF9008950F931F93CF93DF9300D000D0CE
:100E7000CDB7DEB7182F092F8091E2011F928F9313
:100E80008091E3011F928F9325EF32E03F932F93E0
:100E90004B835C8369837A830E94E2189091E2011C
:100EA000A92FB0E0A759B94F0C93A1E0A90FB0E06A
:100EB000A759B94F1C93A2E0A90FB0E0A759B94FA9
:100EC0007A817C93A3E0A90FB0E0A759B94F69815B
:100ED0006C93A4E0A90FB0E0A759B94F5C815C9373
:100EE00086E0890F8093E201E5E0E90FF0E0E75941
:100EF000F94F4B81408368E70E9435170F900F90A0
:100F00000F900F900F900F9091110AC087ED92E013
:100F10009F938F930E94E2180E94D3060F900F9028
:100F20008091E201803FF9F41092E2018091E301A7
:100F30008F5F8093E3011F928F9384E992E09F93E8
:100F40008F930E94E2180E94D9060F900F900F9085
:100F50000F900F900F900F900F90DF91CF911F91F6
:100F60000F910C94D3060F900F900F900F90DF917C
:100F7000CF911F910F910895BC018091B9008E7F90
:100F80008093B9008091B9008D7F8093B90080ED86
:100F900097E00E944F17862F603148F07727CB01EA
:100FA000409797FF02C0CB010F9795958795809347
:100FB000B800089588E290E00E94BC07ECEBF0E0F6
:100FC00080818460808308953C9A84EA8093BC0089
:100FD000089584E98093BC00089580E09091BC005E
:100FE00097FD06C08F3F11F43C9808958F5FF6CFB0
:100FF0003C9880E00895CF93C82F81E090E00E9454
:101000006E023C9AC093BB0084E88093BC00CF91F1
:101010000895882329F08091BC008F70806C04C0F3
:101020008091BC008F7080688093BC00089580918F
:10103000BB0008958091B9000895CF93DF931F926C
:10104000CDB7DEB789830E94E40789810E94FB0740
:101050000E94ED0781111BC081E00E94FB070E94E6
:10106000ED07811114C080E60E94FB070E94ED0786
:1010700081110DC080EB0E94FB070E94ED078111DA
:1010800006C084E98093BC0080E090E002C08FEF4E
:101090009FE00F90DF91CF9108951F93CF93DF933F
:1010A000C82F0E94E4070E94ED07811127C08C2FF2
:1010B0000E94FB070E94ED07811120C00E94FB07E0
:1010C0000E94ED0781111AC00E94E4078C2F8160F5
:1010D0000E94FB070E94ED07811110C08091BC00A7
:1010E0008F70806C8093BC000E94ED07811106C058
:1010F0001091BB000E94ED07882319F08FEF9FE04D
:101100001FC080E00E9409080E94ED078111F6CF00
:10111000C091BB00D0E00E94ED078111EFCF84E9C0
:101120008093BC00CE0133E0969587953A95E1F720
:1011300040E2149F90011124822B932B94FD906F19
:10114000DF91CF911F910895CF92DF92EF92FF929E
:101150000F931F93CF93DF938091DE01811139C0EC
:10116000CEE7D0E0EE24E394F12C1CE0D12E1C2F2E
:10117000C0FF19C020912101822F86958695869502
:10118000FE0190E8899FE00DF11D1124E759FD4F04
:101190002770C70102C0880F991F2A95E2F79C01AA
:1011A0008081822B8083812F6D2D0E94351797308F
:1011B00059F48091210121E0280F6FEF680F01E0C1
:1011C000412F812F0E945E032197CA32D10579F603
:1011D000B2C08130A1F5CEE7D0E0EE24E394F12C4B
:1011E0001C2FC0FF19C020912101822F8695869562
:1011F0008695FE0190E8899FE00DF11D1124E759C5
:10120000FD4F2770C70102C0880F991F2A95E2F78A
:101210009C018081822B8083812F8370833051F4E5
:101220006091210121E0260F615001E0412F812FC3
:101230000E945E032197CE31D10591F67CC08230A9
:1012400009F03FC0CEE7D0E075E0D72EEE24E3945E
:10125000F12CFFE0CF2E1C2F8C2F6D2D0E94351707
:101260009230C9F420912101822F8695869586952A
:10127000FE0190E8899FE00DF11D1124E759FD4F13
:101280002770C70102C0880F991F2A95E2F79C01B9
:101290008081822B8083812F6C2D0E94351797309F
:1012A00059F48091210121E0280F6FEF680F01E0D0
:1012B000412F812F0E945E032197C432D10559F638
:1012C0003AC08330D1F5CEE7D0E0EE24E394F12CA0
:1012D0006AE0D62E1C2FC0FF19C020912101822F59
:1012E000869586958695FE0190E8899FE00DF11D13
:1012F0001124E759FD4F2770C70102C0880F991FBD
:101300002A95E2F79C018081822B8083812F6D2DAD
:101310000E943517973059F48091210121E0280F60
:101320006FEF680F01E0412F812F0E945E0321972C
:10133000C234D10579F61093E101109121011F53B8
:10134000C1E0D0E04AE0F42E20912101422F50E08C
:10135000411B510917FD5395141615068CF51F5F97
:1013600010FD1BC0422F411BE42FE695E695E69544
:101370008091E10190E8E99FF0011124E80FF11D4F
:10138000E759FD4F4770CE0102C0880F991F4A955B
:10139000E2F7AC018081842B8083812F6F2D0E9426
:1013A00041179111D1CF112379F28091E101622F80
:1013B000611B41E0480F01E0262F0E945E03C4CF6D
:1013C000DF91CF911F910F91FF90EF90DF90CF9021
:1013D0000895BF92CF92DF92EF92FF920F931F93E7
:1013E000CF93DF93C091E301D0E0DC2FCC27909125
:1013F000E201C92B9091DE019923F9F0923021F09E
:10140000913021F091E003C094E001C09FE0209171
:10141000DF013091E0013195219531092115310528
:1014200069F0AE01465051094A3F19F4AE014651E8
:10143000510921503109EA01F1CF98E70FE7B02EA9
:10144000082F10E0EE24E394F12CC92ED12C8091CA
:10145000E1018B1508F04AC0CE01800F911F0E9458
:10146000AD068F3F2FE0920789F1BC0180E090E04C
:101470000E94441620E030E040E85DE30E94AA1696
:101480000E94131620912101822F90E0861B910962
:1014900067FD93950197CE97C8F4822F861BE82F9E
:1014A000E695E695E69530E8E39FF0011124EB0D13
:1014B000F11DE759FD4F8770970102C0220F331FBE
:1014C0008A95E2F7C9019081982B9083BA949E0186
:1014D00080E090E02697CA3F11F4E90166970196F3
:1014E000C816D90609F4B3CF9E01F4CFDF91CF918E
:1014F0001F910F91FF90EF90DF90CF90BF900895D4
:10150000FF920F931F93CF93DF93EC01162FF42ECE
:10151000842F64E60E943517892F0AE0602F0E940D
:101520003517482F612FCE010E9475048F2D602F33
:101530000E943517492F612FCE01DF91CF911F9166
:101540000F91FF900C94750408956F927F928F9283
:101550009F92AF92BF92CF92DF92EF92FF920F9342
:101560001F93CF93DF9300D000D01F92CDB7DEB78B
:101570000E941C0300E02FE34FE760E080E00E9440
:101580005E0380911F01882309F47BC113E06AE3A5
:10159000F62E24E3210F6F2D611B01E0412F812FD7
:1015A0000E945E031F5F1930A1F729E34EE065E357
:1015B00088E00E945E031EE056E3F52E2F2D211BCE
:1015C0006AE1610F01E0412F812F0E945E031150FB
:1015D0001830A1F72AE248E066E283E00E945E0349
:1015E0000E94A40880911F0182FF11C035E0832E64
:1015F00046E0A42EC12CE12C03E026E045E06BE997
:101600008AE491E00E94E40380E00E94E90980916D
:101610001F0181FF12C085E0882E96E0A92EC12C03
:1016200026E0E22E09E023E045E06BE98AE491E060
:101630000E94E40382E00E94E90980911F0180FF7B
:1016400012C0B5E08B2E16E0A12EC12C0CE0E02ECE
:1016500009E029E045E06BE98AE491E00E94E403B7
:1016600084E00E94E9098091DE01811112C086E0C8
:101670008D8347E062E1CE0105960E947504E5E0A6
:101680008E2EF6E0AF2EC12CA2E1EA2E08E126E074
:101690002EC0813039F448E150E062E183E00E94DD
:1016A000B50413C0823039F486E08C8346E062E1F1
:1016B000CE01049608C0833001F587E08B8341E0BA
:1016C00062E1CE0103960E94750445E0842E56E047
:1016D000A52EC12C6AE2E62E08E123E045E06BE985
:1016E0008AE491E00E94E40376E6E72E29E045E0F3
:1016F0006BE98AE491E00E94E4038091E10101E05A
:1017000020E04EE760E08F5F0E945E038091E10180
:101710002FE34EE76FE38F5F0E945E032FE34FE7F7
:1017200060E08FE70E945E038091DE01882309F468
:1017300052C086E489838091DF019091E00160E6E8
:101740007AEF0E946317462F62E0CE0101960E9455
:10175000750495E0892E26E0A22EC12C32E1E32EFD
:1017600002E0298145E06BE98AE491E00E94E4030C
:101770008981885F89838091DF019091E001919553
:101780008195910960EA75E00E9463170CE310E00F
:10179000B8010E946317462F62E0CE0101960E94B5
:1017A000800A9981E92FF0E0E759FD4F8081886236
:1017B00080839E5F99838091DF019091E0019195F4
:1017C00081959109B8010E946317482F62E0CE010C
:1017D00001960E94800A6091210160528091E1018E
:1017E0004EE150E08C500E94B50460912101665199
:1017F0008091E10144E150E08C500E94B504609179
:1018000021016C508091E1014AE050E089500E9432
:10181000B5046091210162508091E10186508A8374
:1018200040E0CE0102960E94750460912101685F3C
:101830008091E1014AE050E089500E94B504609136
:1018400021016E5E8091E10144E150E08C500E94E4
:10185000B5048091E10160912101665F43EF480F7B
:1018600001E0262F8F500E945E038091E10160917C
:1018700021016C5E40EF480F262F82510E945E03CB
:1018800089C15F9A25E0822E36E0A32EC12C42E466
:10189000E42E03E023E045E06BE98AE491E00E9456
:1018A000E40350E3E52E29E045E06BE98AE491E0AA
:1018B0000E94E4036EE7E62E09E023E045E06BE9D1
:1018C0008AE491E00E94E40378E1E72E29E045E014
:1018D0006BE98AE491E00E94E403E12C08E024E152
:1018E00045E06BE98AE491E00E94E403E6E0EE2E35
:1018F0000CE124E145E06BE98AE491E00E94E40315
:10190000FCE0EF2E00E324E145E06BE98AE491E09E
:101910000E94E4038091200101E02CE0482F68E060
:101920000E945E038091200120E2482F6CE10E941A
:101930005E038091200124E3482F60E30E945E0350
:10194000A7E08A2EA3E09A2EB7E0CB2EB4E0DB2EE0
:1019500017E8A12E15E0B12E0EE1E02EF12C8AE061
:10196000682E712C1E2D80E8E816F10409F454C08D
:101970002091200130E0F901EE19FF091E161F0623
:101980003CF4CF01B3010E946317892B01F50BC012
:101990003195219531092E193F09C901B3010E94E2
:1019A0006317892BD1F401E02BE0412F69E0812FEF
:1019B0000E945E032FE1412F6DE1812F0E945E03A3
:1019C00023E3412F61E3812F0E945E0318C0E17081
:1019D000FF2781E0E8272E2F04C021703327E1E0A4
:1019E0002E27217061F0F401808184608083F601EC
:1019F000808180648083F501808184608083FFEF33
:101A00008F1A9F0A8FEFC81AD80AEFEFAE1ABE0AD4
:101A1000FFEFEF1AFF0AA6CF85E792E09F938F931F
:101A20000E94E2180F900F9080E90E944D087C01FF
:101A30008F3FEFE09E07C1F3BC01882777FD8095BB
:101A4000982F0E94461620E030E040E85DE30E94B7
:101A5000AA160E941316162F80912001810F41E0D3
:101A6000480F02E02DE067E081500E945E03809104
:101A700020018C50A7016FE0810F0E941B0582E9B5
:101A80000E944D087C018F3FFFE09F07C1F3BC011E
:101A9000882777FD8095982F0E94461620E030E039
:101AA00040E85DE30E94AA160E941316162F80914B
:101AB0002001810F41E0480F02E021E26BE18150FB
:101AC0000E945E03809120018C50A70163E2810F88
:101AD0000E941B0584E90E944D088C010F3F8FE096
:101AE0001807C1F3B801882777FD8095982F0E94C9
:101AF000461620E030E040E85DE30E94AA160E940E
:101B00001316F62E809120018C50A80167E38F0DEB
:101B10000E941B05809120018F0D41E0480F02E0DB
:101B200025E36FE281500E945E038091200145EE23
:101B3000480F01E023E063E08D510E945E03809135
:101B4000200144E150E061E089510E94B504809198
:101B500020018250898340E061E0CE0101960E941D
:101B600075048091200144E150E061E0815F0E94B2
:101B7000B5048091200148E250E061E08D5D0E9453
:101B8000B504809120014CE350E061E0895C0E9443
:101B9000B5045F980E94F5020F900F900F900F9080
:101BA0000F90DF91CF911F910F91FF90EF90DF90F9
:101BB000CF90BF90AF909F908F907F906F9008953F
:101BC00081E191E090936C0780936B0783E091E053
:101BD00090936A0780936907089580E90E941D0821
:101BE0008F3F9F40D1F380E90E941D088F3F9F40A7
:101BF000D1F382E90E941D088F3F9F40D1F382E913
:101C00000E941D088F3F9F40D1F384E90E941D0868
:101C10008F3F9F40D1F384E90E941D088F3F9F4072
:101C2000D1F386E90E941D088F3F9F40D1F386E9DA
:101C30000E941D088F3F9F40D1F308951F920F927D
:101C40000FB60F921124EF92FF920F931F932F93D1
:101C50003F934F935F936F937F938F939F93AF9334
:101C6000BF93CF93DF93EF93FF9320910101809176
:101C7000DA019091DB01820F911D9093DB0180933B
:101C8000DA01CC970CF46BC01092DB011092DA01F0
:101C90008091DC019091DD010196803A25E0920768
:101CA00029F09093DD018093DC010DC01092DD01DD
:101CB0001092DC018091D8019091D9010196909306
:101CC000D9018093D80180910201882309F44DC085
:101CD00078945F9A81EA90E09F938F930E94E21834
:101CE00080E90E944D087C010F900F9082E90E94CC
:101CF0004D08EC01CF3F8FE0D807C1F384E90E9483
:101D00004D088C010F3F9FE01907C1F3FF92EF923E
:101D10002EE830E03F932F930E94E218DF93CF9399
:101D20002BE730E03F932F930E94E2181F930F930D
:101D300028E630E03F932F930E94E218A801BE01ED
:101D4000C7010E9432070E94A50A5F988DB79EB70F
:101D50000C960FB6F8949EBF0FBE8DBF06C0809143
:101D60001F01811102C00E94A50AFF91EF91DF912E
:101D7000CF91BF91AF919F918F917F916F915F9123
:101D80004F913F912F911F910F91FF90EF900F90E6
:101D90000FBE0F901F9018951F920F920FB60F92C3
:101DA00011242F933F934F935F938F939F93EF93C0
:101DB000FF934091C0005091C60048718091E601A8
:101DC00090E001968F7399272091E50130E082170A
:101DD000930739F08093E601FC01E751FE4F5083F1
:101DE00001C042E04093E401FF91EF919F918F91F8
:101DF0005F914F913F912F910F900FBE0F901F90C9
:101E000018951F920F920FB60F9211248F939F93E4
:101E1000EF93FF939091E8018091E701981779F093
:101E20008091E70190E001968F7399278093E701F5
:101E3000FC01E75DFD4F80818093C60005C0809165
:101E4000C1008F7D8093C100FF91EF919F918F9191
:101E50000F900FBE0F901F9018951092E8011092EE
:101E6000E7011092E6011092E50197FF04C022E01D
:101E70002093C0009F779093C5008093C40088E9A9
:101E80008093C10086E08093C20008959091E6019E
:101E90008091E5019817A1F08091E50190E001960D
:101EA0008F7399278093E501FC01E751FE4F208154
:101EB0008091E40190E0982F8827820F911D08956A
:101EC00080E091E008959091E6018091E5019817F6
:101ED00089F0E091E501F0E03196EF73FF27E751DB
:101EE000FE4F20818091E40190E0982F8827820F97
:101EF000911D089580E091E008952091E80130E07F
:101F00002F5F3F4F2F7333274091E70150E0241795
:101F10003507D1F3F901E75DFD4F80832093E80198
:101F20008091C10080628093C1000895CF93DF93B8
:101F3000EC018991882319F00E947D0FFACFDF917F
:101F4000CF910895CF93DF93FC018491EF01219607
:101F5000882321F00E947D0FFE01F7CFDF91CF9102
:101F600008958091E6012091E50190E0CF96821BD3
:101F700091096FE370E00E94631708958091E50175
:101F80008093E6010895CF93DF9300D000D0CDB7C2
:101F9000DEB78EEE84B980EF87B98EEF8AB98FE015
:101FA00088B980E48BB981E085B980E090E89093AE
:101FB00089008093880080918100886080938100EF
:101FC00080916F00826080936F00809181008460B7
:101FD000809381008CE090E00E942D0F0E94E00D24
:101FE00078945F9A88E592E09F938F930E94E2181D
:101FF00086E492E09F938F930E94E2180E949D05D1
:1020000084E392E09F938F930E94E2180E94DA0784
:1020100089EF91E09F938F930E94E2180E94ED0D4B
:1020200081EE91E09F938F930E94E2180FB6F8948F
:10203000DEBF0FBECDBF0091E30110E0102F0027DF
:102040008091E201082BC8010E94FB058F3041F00E
:102050008091E2018A3E18F58A5F8093E201EBCF1E
:10206000C80101960E94FB058F3F91F7C8010296B7
:102070000E94FB058F3061F7C80103960E94FB05A3
:102080008F3F31F7C80104960E94FB058F3001F79E
:10209000C80105960E94FB058F3FD1F611C0109232
:1020A000E2018091E3018F5F8093E3018111C3CF4F
:1020B00082EC91E09F938F930E94E2180F900F9013
:1020C0008091E2011F928F938091E3011F928F9381
:1020D0008AEA91E09F938F930E94E2188091E30136
:1020E0000E94E7060E94A50A5F980F900F900F903C
:1020F0000F900F900F90DE011196BC83AB83FAE135
:102100004F2EF1E05F2EA8E16A2EA1E07A2EB7E90A
:10211000CB2EB1E0DB2E15E9A12E11E0B12E0DED95
:1021200010E0ECE38E2E912C0E94460F90FD24C10E
:102130008A3751F58DE991E09F938F930E94E218C1
:102140000F900F90312C76E0272EE32DF0E0E75929
:10215000F94F80811F928F93DF92CF920E94E218F5
:102160003394832D622D0E9435170F900F900F909E
:102170000F90911106C0BF92AF920E94E2180F908B
:102180000F903110E2CFF8C08937D9F48FE791E092
:102190009F938F930E94E21881E091E09F938F9329
:1021A00080ED91E09F938F930E940419809101012B
:1021B0001F928F938BE791E09F938F930E94E21879
:1021C000B8C0843729F51A82198283E691E09F937B
:1021D0008F930E94E218CE0101969F938F9383ED17
:1021E00091E09F938F930E9404198A818F93898134
:1021F0008F938DE591E09F938F930E94E2180FB625
:10220000F894DEBF0FBECDBF89810E944D08FCCF80
:102210008E36F9F48EE491E09F938F930E94E2183A
:1022200083EE91E09F938F9383ED91E09F938F9343
:102230000E9404198091E3011F928F9388E491E03A
:102240009F938F930E94E2180E94D9060E94D306A2
:1022500070C0883749F487E391E09F938F930E9481
:10226000E2180E94D90686C08D3609F043C088E284
:1022700091E09F938F930E94E2189C819F93AB8182
:10228000AF9383ED91E09F938F930E9404198A810D
:102290008F9389818F9382E291E09F938F930E9425
:1022A000E21880E291E09F938F930E94E2180FB6AC
:1022B000F894DEBF0FBECDBF312CF980E12CC701F1
:1022C00083290E94FB051F928F935F924F920E9479
:1022D000E2183394832D8F700F900F900F900F9012
:1022E00061F77F926F920E94E2180F900F90311069
:1022F000E4CF42C0833619F58091DC019091DD0175
:102300002091DB012F932091DA012F93B4010E94D9
:102310004F179F938F937F936F938091D9018F93E2
:102320008091D8018F9384EF90E09F938F930E94C8
:10233000E2180FB6F894DEBF0FBECDBF1DC08137C7
:1023400041F41F930F930E94E21881E080930201F1
:1023500011C0813649F4A2ECB0E0BF93AF930E9464
:10236000E2181092020106C0A0ECB0E0BF93AF9358
:102370000E94E2180F900F9026B08091000128264D
:10238000822D8F70382E09F4CFCE86B18093000154
:1023900020FE07C002E02FE04FE061E081E00E94F4
:1023A0005E0321FE07C002E02EE14FE060E181E024
:1023B0000E945E0322FE07C002E02FE24FE061E2CE
:1023C00081E00E945E0323FE07C002E02EE34FE09F
:1023D00060E381E00E945E0386B18170832139F160
:1023E00080911F01811102C084E003C0843021F478
:1023F00082E080931F0118C0823011F481E0F9CF90
:10240000813011F486E0F5CF863011F483E0F1CF0E
:10241000833011F485E0EDCF853011F487E0E9CF0A
:10242000873011F410921F010E94A50A7DC086B169
:102430008270832171F080911F01882351F0809177
:10244000DE018F5F8093DE01843071F71092DE0130
:10245000EBCF86B184708321C1F080911F01882366
:10246000A1F02091DE018091DF019091E001213007
:1024700019F488599E4F1DC0223019F4865A9F4F77
:1024800026C02330F1F50F962FC086B188708321C6
:1024900009F444C080911F01882309F43FC02091B2
:1024A000DE018091DF019091E001213061F48856D6
:1024B00091409093E0018093DF0180349E4D0CF5B4
:1024C00080E49EED1AC0223061F48A559109909300
:1024D000E0018093DF0188309A4D9CF488E09AED0A
:1024E0000CC0233071F40F979093E0018093DF01CB
:1024F0008C3D984D34F48FEA98ED9093E0018093F1
:10250000DF018091DF019091E001181619060CF0AF
:102510008BCF1092E0011092DF0186CF2EE340E1D5
:1025200061E081E00E94B30286B180930001F7CDA3
:10253000A3E1B0E0EEE9F2E10C9477177C011B0116
:102540006A01FC0117821682838181FF66C3BE0186
:102550006F5F7F4F4B01F7019381F10193FD8591EF
:1025600093FF81911F01882309F453C3853239F405
:1025700093FD859193FF81911F01853239F4B70155
:1025800090E00E949C1856016501E5CF10E0512CA7
:1025900020E02032A0F48B3269F030F4803259F020
:1025A000833269F420612CC08D3239F0803339F4E4
:1025B000216026C02260246023C0286021C027FD3E
:1025C00027C030ED380F3A3078F426FF06C0FAE025
:1025D0001F9F300D1124132F13C06AE0569E300D3B
:1025E0001124532E20620CC08E3221F426FD11C31B
:1025F000206406C08C3611F4206802C0883641F48D
:10260000F10193FD859193FF81911F018111C1CF4C
:102610009BEB980F933018F42061805E06C09BE915
:10262000980F933008F0AAC12F7E26FF16E02F7373
:10263000722E853621F4F22FF0647F2E08C0863684
:1026400021F4622F6068762E02C01111115077FEBE
:1026500007C01C3348F444244394410E27E00BC0C8
:10266000183030F4212F06C027E04CE3442E03C07D
:1026700027E017E0412C560174E0A70EB11CF601CB
:102680006081718182819381042DA4010E94AE1723
:102690006C01098100FF02C003FF06C071FC07C086
:1026A00072FC08C0612C08C03DE2632E05C02BE21D
:1026B000622E02C090E2692E802F8C7099F1662004
:1026C00011F084E001C083E0851510F0512C0BC09F
:1026D000581A73FC08C0B70180E290E00E949C1871
:1026E0005A94C9F7F3CF662029F0B701862D90E000
:1026F0000E949C1803FD03C000E713E002C00CE633
:1027000013E0F72DF0717F2EF8018491882309F4EE
:1027100076C271108052B70190E00E949C180F5F42
:102720001F4FF2CF77FE0FC04C0C04FF04C08A810C
:10273000813309F44A94141474F5F8E0F41578F52B
:1027400088E0482E2CC076FC2AC0812F90E08C15A2
:102750009D059CF06CEFC6166FEFD60674F0772DD2
:102760007068772E0AC0E2E0F0E0EC0FFD1FE10F89
:10277000F11D8081803319F411501111F4CF77FECF
:102780000EC044244394410E812F90E0C816D90610
:102790002CF41C1904C04424439401C010E077FEBB
:1027A00007C01C141D043CF496012F5F3F4F05C069
:1027B00025E030E002C021E030E0662011F02F5F1C
:1027C0003F4F112331F0412F50E04F5F5F4F240FF7
:1027D000351F452D50E02417350714F4521A01C057
:1027E000512C872D897049F4552039F0B70180E2CA
:1027F00090E00E949C185A94F7CF662029F0B70108
:10280000862D90E00E949C1873FC09C0552039F079
:10281000B70180E390E00E949C185A94F7CF77FEAE
:102820005FC09C2D8D2DD7FE02C090E080E0692E08
:10283000782E40E050E0C601841991099D878C876D
:10284000960126193709280D391D812F90E0EE27B2
:10285000FF27E81BF90BFF87EE87FFEF6F167F0658
:1028600069F4B7018EE290E02B8B3A8B488B598B41
:102870000E949C18598948893A892B89C614D70423
:1028800054F06C857D85661577052CF4F901E40F0D
:10289000F51F818101C080E371E0671A71084F5F05
:1028A0005F4FEE85FF856E167F066CF0B70190E0F6
:1028B0002B8B3A8B488B598B0E949C182B893A8919
:1028C00048895989CACF6C147D0439F49A819633AA
:1028D00018F4953311F404FF81E3B70190E04BC085
:1028E0008A81813309F00F7EB70190E00E949C1825
:1028F000111105C074FE18C085E490E017C0B7013F
:102900008EE290E00E949C1882E066246394680E38
:10291000F401E80FF11D8081B70190E00E949C183E
:10292000115041F3862DF1CF85E690E0B7010E946A
:102930009C18D7FC05C0C114D10439F404FF05C0AC
:10294000D194C194D1088DE201C08BE2B70190E02F
:102950000E949C1880E36AE0C616D1042CF08F5FB9
:10296000FAE0CF1AD108F7CFB70190E00E949C1887
:10297000B701C601C0960E949C1841C1833631F050
:10298000833779F0833509F058C021C0560172E0D1
:10299000A70EB11CF6018081898301E010E064017B
:1029A00014C05601F2E0AF0EB11CF601C080D18018
:1029B00026FF03C0612F70E002C06FEF7FEFC601FA
:1029C0002B8B0E9491188C012B892F7715C05601F3
:1029D000F2E0AF0EB11CF601C080D18026FF03C02B
:1029E000612F70E002C06FEF7FEFC6012B8B0E945A
:1029F00086188C012B892068722E23FD1AC0852D24
:102A000090E008171907A8F4B70180E290E00E944F
:102A10009C185A94F4CFF60177FC859177FE81914A
:102A20006F01B70190E00E949C1851105A94015018
:102A300011090115110579F7E2C0843611F08936C4
:102A400051F5560127FF09C0F4E0AF0EB11CF601A5
:102A500060817181828193810AC0F2E0AF0EB11C66
:102A6000F60160817181882777FD8095982F022F6C
:102A70000F7697FF08C090958095709561957F4F70
:102A80008F4F9F4F00682AE030E0A4010E94181980
:102A9000C82EC8183EC0022F853721F40F7E2AE0C9
:102AA00030E01DC0097F8F3691F018F4883559F059
:102AB000B0C0803719F0883711F0ABC0006104FF57
:102AC00009C0046007C024FF08C0066006C028E0F3
:102AD00030E005C020E130E002C020E132E05601E4
:102AE00007FF09C0F4E0AF0EB11CF60160817181EF
:102AF0008281938108C0F2E0AF0EB11CF6016081C3
:102B0000718180E090E0A4010E941819C82EC818B5
:102B10000F7706FF0BC0202F2E7FC11650F404FF45
:102B20000AC002FD08C0202F2E7E05C0DC2C202FFD
:102B300003C0DC2C01C0D12E24FF0DC0FE01EC0D22
:102B4000F11D8081803311F4297E09C022FF06C067
:102B5000D394D39404C0822F867809F0D39423FDB4
:102B600013C020FF06C01C2DD51418F4150D1D1917
:102B7000D52CD51468F4B70180E290E02B8B0E942D
:102B80009C18D3942B89F5CFD51410F45D1801C08F
:102B9000512C24FF12C0B70180E390E02B8B0E94E0
:102BA0009C182B8922FF17C021FF03C088E590E005
:102BB00002C088E790E0B7010CC0822F867859F0F8
:102BC00021FD02C080E201C08BE227FD8DE2B7014A
:102BD00090E00E949C18C11638F4B70180E390E0A1
:102BE0000E949C181150F7CFCA94F401EC0DF11D0E
:102BF0008081B70190E00E949C18C110F5CF55204C
:102C000009F4C2CCB70180E290E00E949C185A946B
:102C1000F6CFF7018681978102C08FEF9FEF639611
:102C2000E2E10C94931704D06894B1118DC008951B
:102C300070D088F09F5790F0B92F9927B751A0F026
:102C4000D1F0660F771F881F991F1AF0BA95C9F740
:102C500012C0B13081F077D0B1E0089574C0672F11
:102C6000782F8827B85F39F0B93FCCF386957795F0
:102C70006795B395D9F73EF49095809570956195D9
:102C80007F4F8F4F9F4F0895E89409C097FB3EF404
:102C900090958095709561957F4F8F4F9F4F9923A9
:102CA000A9F0F92F96E9BB279395F6958795779527
:102CB0006795B795F111F8CFFAF4BB0F11F460FFE7
:102CC0001BC06F5F7F4F8F4F9F4F16C0882311F03F
:102CD00096E911C0772321F09EE8872F762F05C053
:102CE000662371F096E8862F70E060E02AF09A95EE
:102CF000660F771F881FDAF7880F9695879597F9E3
:102D0000089557FD9058440F551F59F05F3F71F0DB
:102D10004795880F97FB991F61F09F3F79F0879542
:102D20000895121613061406551FF2CF4695F1DFCB
:102D300008C0161617061806991FF1CF869571055B
:102D4000610508940895E894BB2766277727CB018F
:102D500097F908950BD078C069D028F06ED018F09C
:102D6000952309F05AC05FC01124EECFCADFA0F34B
:102D7000959FD1F3950F50E0551F629FF001729F10
:102D8000BB27F00DB11D639FAA27F00DB11DAA1F2F
:102D9000649F6627B00DA11D661F829F2227B00D7C
:102DA000A11D621F739FB00DA11D621F839FA00D07
:102DB000611D221F749F3327A00D611D231F849F57
:102DC000600D211D822F762F6A2F11249F575040AE
:102DD0008AF0E1F088234AF0EE0FFF1FBB1F661F49
:102DE000771F881F91505040A9F79E3F510570F002
:102DF00014C0AACF5F3FECF3983EDCF3869577953D
:102E00006795B795F795E7959F5FC1F7FE2B880FFC
:102E1000911D9695879597F9089597F99F6780E892
:102E200070E060E008959FEF80EC089500240A941C
:102E30001616170618060906089500240A94121695
:102E40001306140605060895092E0394000C11F4C8
:102E5000882352F0BB0F40F4BF2B11F460FF04C075
:102E60006F5F7F4F8F4F9F4F0895991B79E004C08C
:102E7000991F961708F0961B881F7A95C9F78095B9
:102E8000089587FB082E062687FD819567FD6195CD
:102E90000E9435170EF4919507FC81950895AA1BA1
:102EA000BB1B51E107C0AA1FBB1FA617B70710F035
:102EB000A61BB70B881F991F5A95A9F78095909567
:102EC000BC01CD01089597FB072E16F4009407D09E
:102ED00077FD09D00E944F1707FC05D03EF490956E
:102EE00081959F4F0895709561957F4F08952F921A
:102EF0003F924F925F926F927F928F929F92AF928A
:102F0000BF92CF92DF92EF92FF920F931F93CF93D6
:102F1000DF93CDB7DEB7CA1BDB0B0FB6F894DEBF6D
:102F20000FBECDBF09942A88398848885F846E8493
:102F30007D848C849B84AA84B984C884DF80EE80DD
:102F4000FD800C811B81AA81B981CE0FD11D0FB6E6
:102F5000F894DEBF0FBECDBFED010895283008F014
:102F600027E03327DA01990F311D87FD9160009624
:102F70006105710539F432602E5F3D9330E32A9587
:102F8000E1F708959F3F30F080387105610509F041
:102F90003C5F3C5F3D93913008F08068911DDF936A
:102FA000CF931F930F93FF92EF92192F987F9695CF
:102FB000E92F96959695E90FFF27E253FC4F992745
:102FC0003327EE24FF24A701E70105900894079416
:102FD00028F4360FE71EF81E491F511D660F771F94
:102FE000881F991F0694A1F70590079428F4E70E0F
:102FF000F81E491F561FC11D770F881F991F661F96
:103000000694A1F70590079428F4F80E491F561F5F
:10301000C71FD11D880F991F661F771F0694A1F740
:103020000590079420F4490F561FC71FD81F990F0A
:10303000661F771F881F0694A9F784911095177053
:1030400041F0D695C79557954795F794E7941A950B
:10305000C1F7E4E7F3E06894159015913591659117
:10306000959105907FE27395E118F10A430B560B99
:10307000C90BD009C0F7E10CF11E431F561FC91F31
:10308000D01D7EF4703311F48A95E6CFE894015098
:1030900030F0080F0AF40027021708F4202F2395B8
:1030A000022F7A3328F079E37D932A95E9F710C04F
:1030B0007D932A9589F60694979567953795179588
:1030C0001794E118F10A430B560BC90BD00998F07D
:1030D00023957E9173957A3308F070E37C932013E7
:1030E000B8F77E9170617D9330F0839571E37D93A5
:1030F00070E32A95E1F71124EF90FF900F911F9153
:10310000CF91DF91992787FD90950895FC01059057
:10311000615070400110D8F7809590958E0F9F1FD9
:103120000895FC016150704001900110D8F780951E
:1031300090958E0F9F1F08950F931F93CF93DF934A
:10314000182F092FEB018B8181FD03C08FEF9FEFBB
:1031500020C082FF10C04E815F812C813D814217CB
:1031600053077CF4E881F9819F012F5F3F4F39833A
:103170002883108306C0E885F985812F0995892B5E
:1031800029F72E813F812F5F3F4F3F832E83812F71
:10319000902FDF91CF911F910F910895A0E0B0E0A3
:1031A000E4EDF8E10C948717FE0135966191719179
:1031B000AF0180916B0790916C070E949812E2E03A
:1031C0000C94A317A0E0B0E0E8EEF8E10C948517AA
:1031D000FE013796619171910BE617E0D8018D9150
:1031E0009C91DC0113962C911397286013962C93D5
:1031F000AF010E949812D801ED91FC912381277FA5
:103200002383E4E00C94A117A0E0B0E0EAE0F9E148
:103210000C948717FE01359661917191AF018091F1
:10322000690790916A070E94F41AE2E00C94A317D0
:10323000FA01AA27283051F1203181F1E8946F93E7
:103240006E7F6E5F7F4F8F4F9F4FAF4FB1E03ED08D
:10325000B4E03CD0670F781F891F9A1FA11D680F2B
:10326000791F8A1F911DA11D6A0F711D811D911D5E
:10327000A11D20D009F468943F912AE0269F1124D3
:103280003019305D3193DEF6CF010895462F477037
:10329000405D4193B3E00FD0C9F7F6CF462F4F7092
:1032A000405D4A3318F0495D31FD4052419302D0F0
:1032B000A9F7EACFB4E0A695979587957795679596
:1032C000BA95C9F700976105710508959B01AC0196
:1032D0000A2E06945795479537952795BA95C9F7BD
:1032E000620F731F841F951FA01D089520FD09C044
:1032F000FC0123FD05C022FF02C07383628351835A
:103300004083089544FD10C046FD10C0DB01FC0160
:10331000AA0FBB1FEE1FFF1F1094D1F76A0F7B1F70
:103320008E1F9F1F31E003C033E001C034E0660F01
:10333000771F881F991F3150D1F7620F711D811DB2
:10334000911D08950F931F93CF93DF938C01C801B4
:103350000E943E1CEC0197FD08C00E942B1C892B8B
:10336000B1F7B801CE010E947C1CCE01DF91CF9154
:103370001F910F9108958F929F92AF92CF92DF92FB
:10338000EF92FF920F931F93CF93DF93EC01A62E42
:103390004A01022F0E943E1CAC0155274B325105B9
:1033A00021F04D32510551F40068AA9411F480E0E7
:1033B00067C0CE010E943E1C97FDF9CF102F1D7FE4
:1033C000302F307301F58033F1F4FF24FA94FA0CB6
:1033D00009F442C0CE010E943E1C97FD3DC0382F2B
:1033E0003F7D383551F41264AA94AA94A9F1CE0114
:1033F0000E943E1C97FF07C02FC006FF02C012604C
:1034000001C01261AF2CC12CD12C760120ED280F08
:10341000283080F014FF04C0BE010E947C1C19C03B
:103420002A3040F016FFF8CF2F7D3FEE320F3630B6
:1034300098F72750412FC701B6010E9482196B01EE
:103440007C011260AA9459F0CE010E943E1C97FFA5
:10345000DDCF11FD04C0ABCFC12CD12C760117FFFD
:1034600008C0F094E094D094C094C11CD11CE11C1D
:10347000F11C212FB701A601C4010E94761981E039
:10348000DF91CF911F910F91FF90EF90DF90CF9040
:10349000AF909F908F900895A1E2B0E0E2E5FAE14D
:1034A0000C947C175C017A018E010F5F1F4F68013D
:1034B00080E2D8011D928A95E9F7F501738040E01A
:1034C00050E0812CB0E0912C81E090E0F90173FC98
:1034D000A59173FEA1918F017A2F9F01A11103C0C5
:1034E00080E090E07DC0AE3519F44115510559F1E9
:1034F000E92DF0E0E417F5073CF4AD3569F1AD32A4
:1035000019F4BB2319F103C0B11101C08A2EE72FB2
:10351000E695E695E69586010E0F111DF801A72F99
:10352000A7708C0102C0000F111FAA95E2F7D80105
:10353000B081BA2BB083781559F0781510F47F5FFD
:10354000E6CF7150E4CF9924939403C0B1E001C059
:10355000B0E04F5F5F4FBACFBB2319F08E8180621E
:103560008E83911003C09924939415C0F601CE0167
:103570008196208120952193E817F907D1F7F3CFA1
:10358000E114F10429F0D7018C93F70131967F0102
:10359000615001F1912CC50169A30E943E1C69A1F3
:1035A00097FD16C0282F269526952695F601E20F41
:1035B000F11D208130E0AC014770552702C03595E0
:1035C00027954A95E2F720FDDBCFB5010E947C1CD0
:1035D000911086CFE114F10411F0D7011C92C801BB
:1035E000A196EDE00C9498174F925F927F928F9284
:1035F0009F92AF92BF92CF92DF92EF92FF920F9382
:103600001F93CF93DF931F92CDB7DEB78C012B01B1
:103610007A01FC0117821682A12CF801D380F201F5
:10362000D3FC8591D3FE8191382F2F01882309F493
:10363000FCC090E039830E942B1C3981892B21F03A
:10364000C8010E94A219E9CF353241F4F201D3FC3E
:103650003591D3FE31912F01353269F4C801398398
:103660000E943E1C398197FDDEC03817B1F2B801C7
:103670000E947C1CDAC03A3241F4D3FC3591D3FE6F
:1036800031912F01BB24B39401C0B12C712C20EDDA
:10369000230F2A3090F4FB2DF260BF2E672D70E0CF
:1036A00080E090E040E20E948219762EF201D3FC85
:1036B0003591D3FE31912F01EACFB1FE03C07110D5
:1036C00003C0B3C077247A94383619F03C3661F0E1
:1036D00014C0F201D3FC3591D3FE31912F0138365D
:1036E00061F4FB2DF860BF2E8B2D8460B82EF201A3
:1036F000D3FC3591D3FE31912F01332309F495C0CA
:10370000632F70E08EE694E039830E94331C398188
:10371000892B09F48AC0B0FC07C0F701C080D180B2
:10372000C70102967C0102C0C12CD12C3E3651F457
:10373000F8014681578160E070E02B2DC6010E94A0
:1037400076196BCF3336A1F4B1FC02C077247394A1
:10375000C8010E943E1C97FD66C0C114D10429F027
:10376000F6018083C60101966C017A9489F757C0EF
:103770003B3559F49201A601672DC8010E944C1AED
:103780002C01009709F04BC045C0C80139830E9445
:10379000A219398197FD47C03F3669F128F43436C4
:1037A00031F1393679F12BC0333769F03537F9F01B
:1037B00026C0C114D10429F0F6018082C601019609
:1037C0006C017A9471F0C8010E943E1C4C0197FD77
:1037D00008C00E942B1C892B61F3B801C4010E9410
:1037E0007C1CC114D104D9F0F601108218C0FB2D45
:1037F000F062BF2E07C08B2D8061B82E03C09B2DB9
:103800009064B92E2B2DA601672DC8010E94BB190B
:10381000811105C0F8018381807329F406C0B0FCD2
:10382000FCCEA394FACEAA2019F08A2D90E002C013
:103830008FEF9FEF0F90DF91CF911F910F91FF902E
:10384000EF90DF90CF90BF90AF909F908F907F9040
:103850005F904F900895911168C0803219F089509F
:103860008550D0F70895FC010590061621F0002040
:10387000D9F7C00108953197CF010895CF93DF9311
:10388000EC012B8120FF33C026FF0AC02F7B2B8346
:103890008E819F8101969F838E838A8190E029C0CB
:1038A00022FF0FC0E881F9818081992787FD9095DB
:1038B000009719F420622B831AC03196F983E883AC
:1038C0000EC0EA85FB85099597FF09C02B810196FB
:1038D00011F480E101C080E2822B8B8308C02E812D
:1038E0003F812F5F3F4F3F832E83992702C08FEF89
:1038F0009FEFDF91CF910895FB01238120FF12C03C
:1039000026FD10C08F3F3FEF930761F082832F7D2C
:103910002064238326813781215031093783268310
:10392000992708958FEF9FEF089599278827089585
:04393000F894FFCF39
:10393400FF0101000000010000000000006002001F
:103944000000000002000000005C0200000000070C
:103954003228DFBE2FFABEEFFB009120280A02288E
:103964008A00913EEEFB3EE8FB0091020882222889
:1039740082009FBE0FFA3EE88300DFF33DDFF74588
:103984001F140551F43DDFF37D511445D107511443
:1039940044411044049404DB144551141051142977
:1039A4001102DF1744C7D17D04740455157DD1F786
:1039B400115154111F0151144441104544940451B0
:1039C400160559021191B2298400D1F33D5FF045E7
:1039D400DF177D51F4055FF4111F1145C40700067C
:1039E4000C13191F252C32383E454B51575E4D6937
:1039F400736D6174636820617420253034580A0043
:083A0400256400253032580052
:00000001FF
